:020000040000FA
:060000000A128A110E280D
:10000800FE00030EF5000408F6000A08F7000A12BD
:100018008A11A9280A128A111128F80183010A12E3
:100028008A111628831603130F178F120F120F1435
:10003800831603178901880103308316031386008A
:100048008501870188018113151495148312031300
:1000580085018601870188018316031316149614F7
:100068008112811101118114011464308312031368
:1000780081000B118B178B158B166430A70000308D
:10008800A8000508B000B1013008A9003108AA008D
:100098000A128A1118210A128A11831203132708D7
:1000A800B2003208B7000A30A7000030A8000508DF
:1000B800B000B1013008A2003108A3006430A000EC
:1000C8000030A1000A128A1181210A128A118312B2
:1000D80003132108AA002008A9000A128A1118216E
:1000E8000A128A11831203132708B2003208B600D5
:1000F8000508B000B1013008A2003108A30064303F
:10010800A0000030A1000A128A1181210A128A1166
:10011800831203132108B4002008B3000A30A0009A
:100128000030A1003408A3003308A2000A128A1183
:1001380081210A128A11831203132008B0003008A3
:10014800B50041280A128A110E280B1CAC28AD28CC
:10015800BD28831203130618B228B328B728013024
:10016800F300730885078618BA28BB28BD28013014
:1001780085020B1DC028C1280E290130F300730821
:100188008312031387077D3081000B118612061333
:1001980086138801FB2837080A128A11DC210A1203
:1001A8008A118312031388008616061386130130FA
:1001B800F3007308F8070E2936080A128A11DC21A1
:1001C8000A128A11831203138800861206178613EF
:1001D800DB2835080A128A11DC210A128A118312D7
:1001E80003138800861206138617F8010E2978086B
:1001F800F300F4017408003A031903290E2973085F
:10020800003A0319CF28013A0319E028033A0319E1
:10021800ED280E290B1077088A0076088400750EE1
:100228008300FE0E7E0E090083120313AD01A81F82
:100238001E291F292629A709A809A70A0319A80AF8
:10024800AD01AD0AAA1F29292A293329A909AA0912
:10025800A90A0319AA0A0130AB002B08AD06AE01A2
:10026800AF012708280403193A293B297229AC0150
:10027800AC0A492901300310A70DA80DFF3E031D44
:100288003F290130AB002B08AC07A81F4C294D298A
:100298003E2901300310AE0DAF0DFF3E031D4E2960
:1002A80028082A02031D5A2927082902031C5D2948
:1002B8005E2965292708A9022808031CAA03AA029F
:1002C8002E1401300310A80CA70CFF3E031D66294D
:1002D8000130AC02031D712972294D292D0803191B
:1002E800762977297C29AE09AF09AE0A0319AF0A26
:1002F8002F08A8002E08A700080083120313A601E0
:10030800A31F872988298F29A209A309A20A0319EB
:10031800A30AA601A60AA11F922993299829A00930
:10032800A109A00A0319A10A2008210403199D297B
:100338009E29CD29A501A50AAC2901300310A00DDD
:10034800A10DFF3E031DA2290130A4002408A50722
:10035800A11FAF29B029A12921082302031DB6290D
:1003680020082202031CB929BA29C0292008A202A0
:100378002108031CA303A30201300310A10CA00C45
:10038800FF3E031DC1290130A502031DCC29CD293B
:10039800B02926080319D129D229D729A209A309E6
:1003A800A20A0319A30A2308A1002208A000080032
:1003B800F200F2293F301A2A06301A2A5B301A2A2C
:1003C8004F301A2A66301A2A6D301A2A7D301A2AB6
:1003D80007301A2A7F301A2A67301A2A7208F00062
:1003E800F1017108003A0319FA291A2A7008003A2B
:1003F8000319DE29013A0319E029033A0319E2290E
:10040800013A0319E429073A0319E629013A0319BD
:10041800E829033A0319EA29013A0319EC290F3AA2
:0E0428000319EE29013A0319F0291A2A0800D7
:04400E00C430FF3F7C
:00000001FF
